:020000040800F2
:1000000078060020890100086B03000863030008DC
:1000100067030008430200083108000800000000E0
:10002000000000000000000000000000890400083B
:1000300047020008000000006D0300089D0500084D
:10004000A3010008A3010008A3010008A301000800
:10005000A3010008A3010008A3010008A3010008F0
:10006000A3010008A3010008A3010008A3010008E0
:10007000A3010008A3010008A3010008A3010008D0
:10008000A3010008A3010008A3010008A3010008C0
:10009000A3010008A3010008A3010008A3010008B0
:1000A000A3010008A3010008A3010008A3010008A0
:1000B000A3010008A3010008A3010008A301000890
:1000C000A3010008A3010008A3010008A301000880
:1000D000A3010008A3010008A3010008A301000870
:1000E000A3010008A3010008A301000800F002F822
:1000F00000F03AF80AA090E8000C82448344AAF188
:100100000107DA4501D100F02FF8AFF2090EBAE885
:100110000F0013F0010F18BFFB1A43F0010318473B
:100120001C0800003C080000103A24BF78C878C1C1
:10013000FAD8520724BF30C830C144BF04680C60ED
:10014000704700000023002400250026103A28BF35
:1001500078C1FBD8520728BF30C148BF0B60704739
:100160001FB51FBD10B510BD00F031F81146FFF7E7
:10017000F7FF00F0A7FB00F04FF803B4FFF7F2FF22
:1001800003BC00F057F800000948804709480047C1
:10019000FEE7FEE7FEE7FEE7FEE7FEE7FEE7FEE737
:1001A000FEE7FEE704480549054A064B7047000094
:1001B000A1050008ED000008780000207806002066
:1001C000780200207802002070477047704775461B
:1001D00000F02CF8AE4605006946534620F00700B3
:1001E000854618B020B5FFF7DDFFBDE820404FF091
:1001F00000064FF000074FF000084FF0000B21F011
:100200000701AC46ACE8C009ACE8C009ACE8C009DD
:10021000ACE8C0098D46704710B50446AFF30080C6
:100220002046BDE81040FFF7A8BF00000048704717
:100230001800002001491820ABBEFEE7260002008E
:10024000704700BFFEE770472DE9F04102460025E8
:100250000026002000230024002791F803C00CF0A2
:100260000F0591F803C00CF0100CBCF1000F03D087
:1002700091F802C04CEA050591F800C0BCF1000FEE
:1002800031D0146800202BE04FF0010C0CFA00F381
:10029000B1F800C00CEA03069E4220D183004FF063
:1002A0000F0C0CFA03F7BC4305FA03FC4CEA0404F8
:1002B00091F803C0BCF1280F06D14FF0010C0CFAE5
:1002C00000FCC2F814C00AE091F803C0BCF1480F6A
:1002D00005D14FF0010C0CFA00FCC2F810C0401C14
:1002E0000828D1D31460B1F800C0BCF1FF0F34DD91
:1002F000546800202EE000F1080C4FF0010808FAC5
:100300000CF3B1F800C00CEA03069E4221D1830031
:100310004FF00F0C0CFA03F7BC4305FA03FC4CEA50
:10032000040491F803C0BCF1280F05D100F1080CBA
:1003300008FA0CF8C2F8148091F803C0BCF1480F19
:1003400007D100F1080C4FF0010808FA0CF8C2F8C8
:100350001080401C0828CED35460BDE8F0810161B4
:10036000704700BFFEE700BFFEE770477047000020
:1003700029B1064AD2690243044BDA6104E0034A18
:10038000D2698243014BDA617047000000100240DD
:1003900029B1064A92690243044B9A6104E0034A78
:1003A00092698243014B9A6170470000001002403D
:1003B00000B589B001210320FFF7DAFF0121C8024F
:1003C000FFF7E6FF4FF4A170ADF8200010208DF884
:1003D000230003208DF8220008A92848FFF734FFE6
:1003E0004FF4A1712548FFF7BAFF6320ADF818005C
:1003F0000420ADF814000020ADF81A00ADF8160086
:1004000005A94FF0804000F0C1F905A91C4800F093
:10041000BDF905A91B4800F0B9F97020ADF804003A
:100420000120ADF806000020ADF80C0001A94FF046
:10043000804000F047F901A9114800F0EDF801A94A
:10044000104800F0E9F80821C80600F08DF90821ED
:100450000B4800F02DF908210A4800F029F9012184
:10046000880700F0CDF80121054800F0C9F8012106
:10047000044800F0C5F809B000BD000000080140C4
:1004800000040040002C0140704710B500F002F855
:1004900010BD00000CB500200190009033480068AA
:1004A00040F480303149086000BF3048006800F4F3
:1004B000003000900198401C0190009818B90198F4
:1004C000B0F5A06FF1D12948006800F4003010B1F8
:1004D0000120009001E0002000900098012843D105
:1004E0002348006840F01000214908600846006871
:1004F00020F0030008600846006840F00200086031
:100500001A484068194948600846406848600846EB
:10051000406840F4806048600846406820F47C10E1
:1005200048600846406840F4E810486008460068A3
:1005300040F08070086000BF0C48006800F0007058
:100540000028F9D00948406820F0030007494860B6
:100550000846406840F00200486000BF0348406819
:1005600000F00C000828F9D10CBD0000001002407A
:1005700000200240042808D14FF0E021096941F031
:1005800004014FF0E022116107E04FF0E02109691A
:1005900021F004014FF0E022116170477047000024
:1005A00010B51348006840F0010011490860084682
:1005B0004068104908400E494860084600680E49E6
:1005C00008400B4908600846006820F48020086055
:1005D0000846406820F4FE0048604FF41F00886021
:1005E000FFF753FF4FF000600449086010BD0000A2
:1005F000001002400000FFF8FFFFF6FE08ED00E0EB
:1006000021B1028842F00102028004E002884FF624
:10061000FE731A400280704770B500240022002348
:10062000058C4FF6FE7635400584028C8388048B5A
:100630004FF68F752C40B51E2C400D882C43751E2F
:100640002A400D892A434D882A43144DA8420BD0D5
:10065000134DA84208D0134DA84205D0124DA84210
:1006600002D0124DA84213D14FF6F7752A404D899A
:100670002A434FF6FB752A408D882A434FF6FF65C3
:100680002B404FF6FF552B408D892B43CD892B43B3
:1006900083800483CD888586028470BD002C014050
:1006A0000034014000400140004401400048014046
:1006B0000A460021018B4FF6F7731940114301835D
:1006C0007047000070B5002400220023058C4FF60F
:1006D000EF7635400584028C8388048B48F6FF75DD
:1006E0002C404FF6FF452C400D884FF6FF7606EA6A
:1006F00005252C434FF6DF752A400D8906EA0515BE
:100700002A434D8806EA05152A43154DA84202D012
:10071000144DA8421DD14FF67F752A404D894FF6E2
:10072000FF7606EA05152A434FF6BF752A408D88E5
:1007300006EA05152A434FF6FF352B404FF2FF75A9
:100740002B408D8906EA85052B43CD8906EA850570
:100750002B4383800483CD880587028470BD00000D
:10076000002C0140003401400A460021018B4FF269
:10077000FF7319404FF6FF7303EA02231943018305
:100780007047818670470187704700000022028809
:100790001D4B98420ED01D4B98420BD0B0F1804FAC
:1007A00008D01B4B984205D01A4B984202D01A4BE6
:1007B000984204D14FF68F731A404B881A43174B57
:1007C000984207D0164B984204D04FF6FF431A4088
:1007D000CB881A4302808B8883850B8803850A4B5C
:1007E00098420BD0094B984208D00E4B984205D046
:1007F0000D4B984202D00D4B984201D10B7A0386E3
:100800000123838270470000002C01400034014026
:100810000004004000080040000C004000100040B0
:1008200000140040004001400044014000480140E5
:1008300000BFFEE710B56FF00400FFF79BFE09480C
:1008400000680949B0FBF1F040B208490870084659
:1008500090F900004FF47A71484300B204490880CF
:1008600010BD00000000002000127A0014000020DB
:10087000160000200146124AB2F900204A434FF008
:10088000E0235A6100229A611A46126942F001027D
:100890001A6100BF4FF0E022106900F001021AB1A6
:1008A00000F48032002AF5D04FF0E022126922F0E5
:1008B00001024FF0E0231A6100229A6170470000A4
:1008C0001600002000240125FFF7B4FFFFF770FD9C
:1008D00016E00A20FFF7CEFF15B1601CC4B201E09C
:1008E000601EC4B2632C00DD002504B9012520463A
:1008F00000F01CF8204600F00FF8204600F002F847
:10090000E7E7000010B5044621460248FFF739FF2B
:1009100010BD0000002C014010B5044621460248DD
:10092000FFF72FFF10BD00000004004010B5044683
:1009300021464FF08040FFF726FF10BD5C090008FC
:1009400000000020180000002801000874090008B9
:1009500018000020600600004401000800A24A04BC
:10096000000000000000000001020304060708095F
:040970000000000083
:04000005080000ED02
:00000001FF
