:020000040800F2
:10000000C8070020CD01000809050008CD0400083C
:100010000505000819030008C30C000800000000D3
:10002000000000000000000000000000E9060008D9
:100030001D0300080000000091050008FD070008EE
:10004000E7010008E7010008E7010008E7010008F0
:10005000E7010008E7010008E7010008E7010008E0
:10006000E7010008E7010008E7010008E7010008D0
:10007000E7010008E7010008E7010008E7010008C0
:10008000E7010008E7010008E7010008E7010008B0
:10009000E7010008E7010008E7010008E7010008A0
:1000A000E7010008E7010008E7010008E701000890
:1000B000E7010008E7010008E7010008E701000880
:1000C000E7010008E7010008E7010008E701000870
:1000D000E7010008DD090008E7010008E701000862
:1000E000E7010008E7010008E7010008E701000850
:1000F000E7010008E7010008E7010008E701000840
:10010000E7010008E7010008E7010008E70100082F
:10011000E7010008E7010008E7010008E70100081F
:10012000E7010008E7010008E7010008E70100080F
:1001300000F002F800F03AF80AA090E8000C8244BF
:100140008344AAF10107DA4501D100F02FF8AFF29C
:10015000090EBAE80F0013F0010F18BFFB1A43F0A5
:1001600001031847440F0000640F0000103A24BF39
:1001700078C878C1FAD8520724BF30C830C144BF0C
:1001800004680C607047000000230024002500264E
:10019000103A28BF78C1FBD8520728BF30C148BFEA
:1001A0000B6070471FB51FBD10B510BD00F06EF895
:1001B0001146FFF7F7FF00F073FE00F0A0F803B45C
:1001C000FFF7F2FF03BC00F07EFD00000948804706
:1001D00009480047FEE7FEE7FEE7FEE7FEE7FEE729
:1001E000FEE7FEE7FEE7FEE704480549054A064B41
:1001F000704700000108000831010008C801002014
:10020000C8070020C8030020C80300207047000072
:100210000FB4044910B503AA029800F009F810BC05
:100220005DF814FB3000002070477047704770473E
:10023000074B70B50D467B4400F011F80446284684
:1002400000F020F810B14FF0FF3070BD204670BDB7
:100250005B0B000001694A1C02610878704700B519
:100260008FB0CDE901310021059105497944CDE9EF
:1002700003101146684600F02EF80FB000BD0000D4
:10028000E5FFFFFF007B00F080007047754600F03F
:100290003FF8AE4605006946534620F00700854604
:1002A00018B020B5FFF7A0FFBDE820404FF00006D2
:1002B0004FF000074FF000084FF0000B21F007014E
:1002C000AC46ACE8C009ACE8C009ACE8C009ACE891
:1002D000C0098D4670472DE9F04106460024D6E955
:1002E0000170F5688046304603E04146B847641C1B
:1002F0003046A8470028F8D12046BDE8F08110B567
:100300000446AFF300802046BDE81040FFF757BF1A
:10031000004870476401002000BFFEE770472DE9E8
:10032000F04102460025002600200023002400277B
:1003300091F803C00CF00F0591F803C00CF0100CFD
:10034000BCF1000F03D091F802C04CEA050591F80A
:1003500000C0BCF1000F31D0146800202BE04FF03A
:10036000010C0CFA00F3B1F800C00CEA03069E423F
:1003700020D183004FF00F0C0CFA03F7BC4305FAB1
:1003800003FC4CEA040491F803C0BCF1280F06D129
:100390004FF0010C0CFA00FCC2F814C00AE091F80E
:1003A00003C0BCF1480F05D14FF0010C0CFA00FC62
:1003B000C2F810C0401C0828D1D31460B1F800C0A6
:1003C000BCF1FF0F34DD546800202EE000F1080C72
:1003D0004FF0010808FA0CF3B1F800C00CEA03066C
:1003E0009E4221D183004FF00F0C0CFA03F7BC435F
:1003F00005FA03FC4CEA040491F803C0BCF1280F91
:1004000005D100F1080C08FA0CF8C2F8148091F834
:1004100003C0BCF1480F07D100F1080C4FF00108F0
:1004200008FA0CF8C2F81080401C0828CED354609B
:10043000BDE8F081F0B50A46002300240021002524
:1004400000F00046B6F1004F02D11D4EF16901E007
:100450001B4E7168C0F3034583B200F44016B6F535
:10046000401F08D121F07061154E766826F0706645
:10047000134F7E6012E000F48016B6F5801F06D19F
:10048000032606FA05F4A14341F0706106E0460D2B
:10049000360103FA06F6B14341F0706122B1460D10
:1004A000360103FA06F6314300F00046B6F1004F7C
:1004B00002D1034EF16101E0014E7160F0BD000018
:1004C00000000140416170470161704700BFFEE7D5
:1004D00010B50A48007820B120210948FFF7F4FF41
:1004E00003E020210648FFF7EDFF0448007808B933
:1004F000012000E000200149087010BD2800002004
:100500000018014000BFFEE77047000070B50021F1
:1005100000230F22C47804B3154C246804F4E0646B
:10052000C4F5E064210AC1F10403CA40447804FA26
:1005300003F184781440214309010E4C0678A1553B
:10054000047804F01F050124AC4005786D11AD005E
:1005500005F1E025C5F8004109E0047804F01F0525
:100560000124AC40044D0678761145F8264070BD54
:100570000CED00E000E400E080E100E0024901430E
:10058000024A1160704700000000FA050CED00E01F
:100590007047000029B1064AD2690243044BDA6170
:1005A00004E0034AD2698243014BDA6170470000DC
:1005B0000010024029B1064A12690243044B1A6135
:1005C00004E0034A12698243014B1A61704700003C
:1005D0000010024029B1064A92690243044B9A6115
:1005E00004E0034A92698243014B9A61704700001C
:1005F0000010024029B1064AD2680243044BDA6077
:1006000004E0034AD2688243014BDA60704700007D
:100610000010024030B500210022002400232D4D9F
:100620006D6805F00C0121B1042905D0082923D1FA
:1006300005E0294D056022E0274D05601FE0254DAE
:100640006D6805F47012234D6D6805F48034022541
:1006500005EB92421CB9214D554305600BE01D4D41
:100660006D6805F400351DB11C4D5543056002E071
:10067000194D5543056002E0174D056000BF00BFEE
:10068000144D6D6805F0F0010909154D6B5C0568A6
:10069000DD4045600F4D6D6805F4E061090A104DBD
:1006A0006B5C4568DD4085600A4D6D6805F46051FE
:1006B000C90A0B4D6B5C4568DD40C560054D6D6832
:1006C00005F44041890B074D6B5CC568B5FBF3F53C
:1006D000056130BD0010024000127A0000093D00A3
:1006E0001400002024000020704710B500F002F82C
:1006F00010BD00000CB50020019000903348006848
:1007000040F480303149086000BF3048006800F490
:10071000003000900198401C0190009818B9019891
:10072000B0F5A06FF1D12948006800F4003010B195
:100730000120009001E0002000900098012843D1A2
:100740002348006840F0100021490860084600680E
:1007500020F0030008600846006840F002000860CE
:100760001A48406819494860084640684860084689
:10077000406840F4806048600846406820F47C107F
:1007800048600846406840F4E81048600846006841
:1007900040F08070086000BF0C48006800F00070F6
:1007A0000028F9D00948406820F003000749486054
:1007B0000846406840F00200486000BF03484068B7
:1007C00000F00C000828F9D10CBD00000010024018
:1007D00000200240042808D14FF0E021096941F0CF
:1007E00004014FF0E022116107E04FF0E0210969B8
:1007F00021F004014FF0E0221161704770470000C2
:1008000010B51348006840F001001149086008461F
:100810004068104908400E494860084600680E4983
:1008200008400B4908600846006820F480200860F2
:100830000846406820F4FE0048604FF41F008860BE
:10084000FFF753FF4FF000600449086010BD00003F
:10085000001002400000FFF8FFFFF6FE08ED00E088
:1008600021B1028842F00102028004E002884FF6C2
:10087000FE731A400280704770B5002400220023E6
:10088000058C4FF6EF7635400584028C8388048B07
:1008900048F6FF752C404FF6FF452C400D884FF66B
:1008A000FF7606EA05252C434FF6DF752A400D89B1
:1008B00006EA05152A434D8806EA05152A43154D13
:1008C000A84202D0144DA8421DD14FF67F752A4090
:1008D0004D894FF6FF7606EA05152A434FF6BF7598
:1008E0002A408D8806EA05152A434FF6FF352B402E
:1008F0004FF2FF752B408D8906EA85052B43CD8984
:1009000006EA85052B4383800483CD88058702840E
:1009100070BD0000002C0140003401400A46002157
:10092000018B4FF2FF7319404FF6FF7303EA022366
:100930001943018370470000002202881D4B984232
:100940000ED01D4B98420BD0B0F1804F08D01B4BFE
:10095000984205D01A4B984202D01A4B984204D1C3
:100960004FF68F731A404B881A43174B984207D0A3
:10097000164B984204D04FF6FF431A40CB881A43D7
:1009800002808B8883850B8803850A4B98420BD0A5
:10099000094B984208D00E4B984205D00D4B984217
:1009A00002D00D4B984201D10B7A0386012383823A
:1009B00070470000002C014000340140000400405A
:1009C00000080040000C00400010004000140040EF
:1009D00000400140004401400048014010B540F291
:1009E00025511F4800F0A9F810B31D4800F060F928
:1009F000C4B21C48008800F40040C8B919480088F7
:100A000000F4804060B10A2C06D11648008840F4FA
:100A100000401449088021E00020124908801DE0B0
:100A20000D2C06D10F48008840F480400D49088005
:100A300014E00C480088C0F30D000B490C54094821
:100A40000088401C0749088008460088B0F5967F5A
:100A500004DD0846008840F40050088010BD000006
:100A600000380140340000203800002021B1828984
:100A700042F40052828104E082894DF6FF731A40ED
:100A80008281704710B504462048844209D1012173
:100A90008803FFF7AFFD00214FF48040FFF7AAFD68
:100AA00032E01B48844209D101214804FFF782FD4E
:100AB00000214FF40030FFF77DFD25E0154884420A
:100AC00009D101218804FFF775FD00214FF4802032
:100AD000FFF770FD18E01048844209D10121C804D5
:100AE000FFF768FD00214FF40020FFF763FD0BE0E6
:100AF0000A48844208D101210805FFF75BFD002167
:100B00004FF48010FFF756FD10BD00000038014083
:100B10000044004000480040004C004000500040AD
:100B200002460020B1F5007F00D100BF13880B40C2
:100B30000BB1012000E00020704770B50246002490
:100B400000230025002040F66A16B14200D100BF04
:100B5000C1F3421501F01F03012606FA03F3012D2C
:100B600002D19689334006E0022D02D1168A334025
:100B700001E0968A33400C12012606FA04F4168826
:100B8000344013B10CB1012000E0002070BDF0B57D
:100B90000346002400260025002040F66A17B942CB
:100BA00000D100BF1846C1F3421401F01F0601270F
:100BB00007FA06F5012C01D10C3004E0022C01D11A
:100BC000103000E014301AB107682F43076002E0CC
:100BD0000768AF430760F0BD2DE9F04786B00546D2
:100BE0000E460024A24600BFA1460027B08900B1EE
:100BF00000BF2F462C8A4CF6FF700440F088044357
:100C00002C82AC894EF6F3100440B0883189084339
:100C1000718908430443AC81AC8A4FF6FF4004401D
:100C2000B0890443AC8201A8FFF7F4FC1F48874257
:100C300002D1DDF810A001E0DDF80CA0A88900F4D5
:100C4000004040B10AEBCA0000EB0A1031684900CD
:100C5000B0FBF1F807E00AEBCA0000EB0A103168BC
:100C60008900B0FBF1F86420B8FBF0F00401200922
:100C7000642101FB1089A88900F4004040B13220B2
:100C800000EBC900B0FBF1F000F00700044308E0FE
:100C9000322000EB09106421B0FBF1F000F00F00EE
:100CA00004432C8106B0BDE8F08700000038014005
:100CB00001468888C0F308007047C1F308028280AB
:100CC000704700BFFEE700BF7047000008B5012174
:100CD0000820FFF77FFC4FF48070ADF80000102073
:100CE0008DF8030003208DF8020069460448FFF7E1
:100CF00016FB4FF480710248FFF7E4FB08BD0000CB
:100D0000000C014010B56FF00400FFF763FD0A48C6
:100D100000680A49B0FBF1F00949087008460078FC
:100D200000EB4001C1EBC0104FF6FF7101EAC000BB
:100D30000449088010BD00000000002000127A0065
:100D40002A0000202C0000200146114A12884A4344
:100D50004FF0E0235A6100229A611A46126942F06C
:100D600001021A6100BF4FF0E022106900F0010299
:100D70001AB100F48032002AF5D04FF0E022126957
:100D800022F001024FF0E0231A6100229A617047BD
:100D90002C00002000BF054A128802F04002002A01
:100DA000F9D0C2B2014B1B1D1A80704700380140B8
:100DB00008B501214420FFF70DFC1C20ADF8000010
:100DC00048208DF8030069460648FFF7A8FA01207D
:100DD000ADF8000028208DF8030069460248FFF7AF
:100DE0009EFA08BD001801400008014000B589B016
:100DF00001210220FFF7CEFB01214920FFF7EAFB8A
:100E00002020ADF8200010208DF8230003208DF85D
:100E1000220008A91E48FFF782FA20211C48FFF78C
:100E200053FB01211B48FFF705FB2020ADF82000F4
:100E300018208DF8230003208DF8220008A91648F9
:100E4000FFF76DFA6320ADF818000420ADF8140028
:100E50000020ADF81A00ADF8160005A90F48FFF7FD
:100E60006BFD7020ADF804000120ADF806000020F5
:100E7000ADF80C0001A90948FFF7FEFC082107485E
:100E8000FFF74CFD01210548FFF7EAFC09B000BD62
:100E90000018014000081A00000C01400004004046
:100EA000FFF730FFFFF7A2FFFFF782FFFFF70EFF0C
:100EB0004FF4A060FFF762FB4FF4E13000F0A0F8C0
:100EC00051E02948008800F40040002828D0264836
:100ED000008800F4005018B124A0FFF799F91BE036
:100EE00021480088C0F30D062EA0FFF791F90025D8
:100EF0000DE03248415D3248FFF7DFFE00BF402180
:100F00002F48FFF70DFE0128F9D1681C85B2B542C4
:100F1000EFDB2CA0FFF77CF900201349088022E0CA
:100F2000601C84B241F2883094FBF0F100FB114068
:100F300028B926A0FFF76CF927A0FFF769F9C820A8
:100F400094FBF0F100FB114010B926A0FFF760F907
:100F50001E2094FBF0F100FB114008B9FFF7B8FA2E
:100F60000A20FFF7F1FEACE7340000200D0A0D0A5D
:100F7000CAE4C8EBD7D6B7FBB8F6CAFDB3ACCFDE30
:100F8000A3ACD2D1C7E5B3FDCAE4C8EBC0FACAB777
:100F9000A3ACC7EBD6D8D0C2CAE4C8EBA3A10D0A54
:100FA0000D0A00000D0AC4FAB7A2CBCDB5C4D0C556
:100FB000CFA2CEAAA3BA0D0A0D0A00003800002065
:100FC000003801400D0A0D0A000000000D0AB1EAC8
:100FD000D6BE310D0A000000B1EAD6BE320D0A0DB0
:100FE0000A000000C7EBCAE4C8EBCAFDBEDDA3AC33
:100FF000D2D4BBD8B3B5BCFCBDE1CAF80D0A000021
:1010000010B586B00446012144F20400FFF7E2FA6D
:101010002348FFF737FD4FF40070ADF81400182097
:101020008DF8170003208DF8160005A91D48FFF75D
:1010300076F94FF48060ADF8140004208DF81700A5
:1010400005A91848FFF76BF901940020ADF80800D6
:10105000ADF80A00ADF80C00ADF810000C20ADF8AA
:101060000E0001A90E48FFF7B7FD25208DF80000FE
:1010700003208DF801008DF8020001208DF8030097
:101080006846FFF743FA012240F225510448FFF772
:101090007EFD01210248FFF7E9FC06B010BD00000B
:1010A0000038014000080140C8100008000000207E
:1010B000380000006C010008001100083800002012
:1010C000900700008801000800A24A040000000008
:1010D00000000000010203040607080900000000E8
:1010E00001020304010203040607080902040608BA
:1010F00000000000000000000000000000000000F0
:0400000508000131BD
:00000001FF
