:020000040800F2
:10000000C8080020DD0100084D0F0008110F00088E
:10001000490F00085D0D00080717000800000000E8
:100020000000000000000000000000002D1100088A
:10003000610D000800000000D50F00084112000803
:10004000F7010008F7010008F7010008F7010008B0
:10005000F7010008F7010008F7010008F7010008A0
:10006000F7010008F7010008F7010008F701000890
:10007000F7010008F7010008F7010008F701000880
:10008000F7010008F7010008F7010008F701000870
:10009000F7010008F7010008F7010008F701000860
:1000A000F7010008F7010008F7010008F701000850
:1000B000F7010008F7010008F7010008F701000840
:1000C000F7010008F7010008F7010008F701000830
:1000D000F701000821140008F7010008F7010008E3
:1000E000F7010008F7010008F7010008F701000810
:1000F000F7010008F7010008F7010008F701000800
:10010000F7010008F7010008F7010008F7010008EF
:10011000F7010008F7010008F7010008F7010008DF
:10012000F7010008F7010008F7010008F7010008CF
:1001300000F002F800F042F80AA090E8000C8244B7
:100140008344AAF10107DA4501D100F037F8AFF294
:10015000090EBAE80F0013F0010F18BFFB1A43F0A5
:1001600001031847D0190000F0190000103A24BF0D
:1001700078C878C1FAD8520724BF30C830C144BF0C
:1001800004680C607047000000230024002500264E
:10019000103A28BF78C1FBD8520728BF30C148BFEA
:1001A0000B6070471FB59DE8030000F0A9FB00F04D
:1001B00073F81FBD10B500F0D8F810BD00F03BF982
:1001C0001146FFF7EFFF01F08BFB00F03FFB03B49C
:1001D000FFF7F0FF03BC00F025FD00000948804751
:1001E00009480047FEE7FEE7FEE7FEE7FEE7FEE719
:1001F000FEE7FEE7FEE7FEE704480549054A064B31
:10020000704700004512000831010008C8020020B4
:10021000C8080020C8040020C80400200FB4044906
:1002200010B503AA029800F009F810BC5DF814FBA1
:10023000BC0100207047704770470000074B70B545
:100240000D467B4400F011F80446284600F020F8E3
:1002500010B14FF0FF3070BD204670BD8F1500000B
:1002600001694A1C02610878704700B58FB0CDE97A
:1002700001310021059105497944CDE9031011466A
:10028000684600F024F90FB000BD0000E5FFFFFF55
:10029000007B00F08000704710B54248542100F008
:1002A000E5FA4148542100F0E1FA4048542100F0B9
:1002B000DDFA3F493B483C4A3F4B08603D490A60F4
:1002C0003A491960531C0365481C106501200865F4
:1002D0003B48344A39A1784400F01CFA20B9384828
:1002E00078440A3800F0BBFA37482F4A35A17844E1
:1002F00000F010FA20B9344878440A3800F0AFFA18
:1003000032482A4A2FA1784400F004FA20B92F4835
:1003100078440A3800F0A3FA40232248DC00002188
:10032000224600F0D3F920B125487844543800F033
:1003300096FA1D4822464023002100F0C7F920B15B
:1003400021487844543800F08AFA1848224610238D
:10035000002100F0BBF9002806D01C487844BDE815
:100360001040563800F07BBA10BD104870B5006DD3
:1003700020F001040B4800F043FA0B4800F040FA6B
:100380000A4800F03DFA09E0206D20F00105204602
:1003900000F036FA204600F073F82C46002CF3D11A
:1003A00070BD000068010020BC0100201002002088
:1003B00030000020340000203800002072000000CF
:1003C0004E180000770000003A18000026180000C0
:1003D0000EB5CDE9000100F005FC02906946012050
:1003E000ABBE0EBD08B5694600900220ABBE08BD8D
:1003F0001FB58DE8070069460520ABBE04B010BDEF
:100400001FB58DE80F0069460620ABBEF6E708B5BC
:10041000694600900920ABBE08BD1CB5CDE90001BE
:1004200069460A20ABBE1CBD704708B569460090FE
:100430000C20ABBE08BD754600F040FAAE46050084
:100440006946534620F00700854618B020B5FFF7EF
:10045000D3FEBDE820404FF000064FF000074FF0FC
:1004600000084FF0000B21F00701AC46ACE8C009D2
:10047000ACE8C009ACE8C009ACE8C0098D467047DB
:1004800070B50446051F00F01FFA0068002C14BF69
:10049000446870BD002C18BFAC423CBF2046646865
:1004A000F8D301680A18AA4218BF456003D12A6828
:1004B00005461144016028684119A1421CBF6C60C7
:1004C00070BD6168696021680844286070BD2DE9CD
:1004D000F04106460024D6E90170F56880463046B2
:1004E00003E04146B847641C3046A8470028F8D1CD
:1004F0002046BDE8F0812DE9F04705460C46C86866
:1005000020F4201040F48000C860800602D5084620
:1005100000F027FBE06841F282014FF0FF39014013
:10052000022903D0204600F0C5FAB5E000F42041CE
:10053000B1F5004F0FD1C00306D56168E06A88426B
:1005400000D80846606006E02069E062606060698B
:10055000FFF76BFFA061A0680022EEB200280DDA61
:10056000E1688B050AD4C043A06041F4903022605A
:10057000E0606068411C61600670A5E0E06890463C
:10058000226040F40050E060206968BB6069FFF7BA
:100590003EFF012704F12405A0B1A08910F4407F9B
:1005A00008D0E06900F0DBF9206118B1E06840F4A0
:1005B000006016E0E7612561E06820F4407040F4D7
:1005C00080600EE0E06900F0CAF900282061F1D0F7
:1005D000E06840F4006010F4407FE06002D140F435
:1005E0008070E06020696060E06825696FF0010A52
:1005F000C1051FD56168E06A884200D80846411BE2
:1006000004D02246284600F05FFAF0BBE068010201
:1006100003D5E562C4E9015854E0691CE1626160F8
:10062000E16940F48030491EC4E9021030462E7062
:10063000BDE8F087010202D500F480320AE060686C
:10064000411C61600670E0680A2E40F48030E06072
:1006500006D00022E16A6068814203D90B4602E0BD
:100660000122F7E70346A7895B1B7F0503D4E769EF
:100670009F4200DDE2B1814200D80146E5620F1AD7
:10068000C4E90158002B09DD00E005E022461946C7
:10069000284600F019FA08B14846C9E747B1A069F1
:1006A000E5626560C01BA061E06840F01000E0609A
:1006B000E068000208D56168A069E562491B08444A
:1006C0006560A0615046B3E73046B1E770B5C468D5
:1006D000A50713D0650211D4B2F5807F09D0B2F519
:1006E000007F06D0B2F5806F08D1012300F124010C
:1006F00006E05D1E6FF07F46B54201D3012070BD5C
:100700000161C361416024F470611143C160002044
:1007100070BD00002DE9F0410C4607461646104614
:1007200000F06EF82078611C61280AD0722802D08F
:1007300077283CD102E00125002405E002250424AD
:1007400002E0082448F2020511F8010B2B2806D01C
:10075000622809D011F8010C74280AD00BE045F08A
:10076000030544F00204EFE745F0040544F00104FA
:10077000EAE744F0100438462146FFF729FE411C01
:1007800015D00021316171604FF40071F560F161A5
:100790007061200704D530460222002100F00EF9D6
:1007A000306D40F0010030653046BDE8F08100203A
:1007B000FBE72DE9F0410D460646104C206DC107C0
:1007C00004D0410804D020F00104F7E722460EE0EF
:1007D000542000F0C4F807000ED0206D47F001014E
:1007E000084354212065384600F040F83A4629462F
:1007F0003046BDE8F0418DE70020D6E768010020D3
:100800002DE9F04704464FF000094FF0FF37C56867
:10081000D4E90486A80707D0204600F07FF93046C7
:10082000FFF7E0FD002802DA3846BDE8F08728052A
:1008300002D54046FFF724FE4C21204600F016F872
:10084000206D20F0010020654846EEE710B5044613
:10085000AFF300802046BDE81040FFF7B8BC10B5EC
:1008600000F0A6F9BDE8104000F09CB94FF000027E
:1008700000B5134694469646203922BFA0E80C5096
:10088000A0E80C50B1F12001BFF4F7AF090728BF71
:10089000A0E80C5048BF0CC05DF804EB890028BFED
:1008A00040F8042B08BF704748BF20F8022B11F016
:1008B000804F18BF00F8012B7047000000487047B8
:1008C0006402002070470000004870476C0200205E
:1008D000704770477047704738B504460A46002095
:1008E0006946AFF30080002808BF38BD0246009972
:1008F000204600F0A4F9012038BD012000F0F3B932
:10090000F8B5AFF30080054600200C46102000BF6C
:100910000646A819A0420DD9324669460020AFF319
:100920000080070008BF00F0DEF90098A04218BF61
:100930000546C419FFF7C8FF05600746F01D20F003
:1009400007004619284600F073F9B44208BFF8BD05
:10095000A21B31463868BDE8F84000F070B970B5A8
:100960000646FFF7B1FF056806F10B0020F007040B
:10097000B4429CBF002070BD2B466A68BAB11068B3
:10098000A04210D304F1080188423CBF506858606F
:1009900007D35168101941601168091B0160586044
:1009A0001460101D70BD13465268002AE7D121461D
:1009B0002846FFF791FF0028DED170BD2DE9F041F8
:1009C000044616460D464769007B80072ED0384600
:1009D000FFF71DFD50BB3EB3012E02D0022E25D1E4
:1009E00004E0204600F045F905441DE03846FFF7D5
:1009F0001CFDE168002841F01001E16005DA2046A5
:100A000000F058F80120BDE8F081C9030BD56268F9
:100A1000E16A914200D81146A26911442269891AFB
:100A2000814200DD08460544002D01DA0220EAE794
:100A3000E16A6068E268814206D29103E06203D510
:100A400022F4003141F01002A6690027AE4213DC07
:100A5000E16A814201D90B4600E0034603EB060C34
:100A60002369ACEB030CAC4506DD814201D98C4611
:100A700000E084469C4505D1A760276042F0200035
:100A8000A5620DE0AD1BE669AE1B8142A66000D9F0
:100A90000846C01A281A20605819606022F0200009
:100AA00003490840E060002084F84870ABE700008C
:100AB000BFCFD7FFC16821F4001141F08001C160B0
:100AC00000218160016070472DE9F047814614469E
:100AD0000E464FF0FF383248D5685769054209D0B5
:100AE0003846A169FFF799FC002811DB2C48C04368
:100AF0000540E5602B46324649463846FFF778FC0C
:100B0000A16920F00042B21A11440028A16103D06B
:100B10002046FFF7CFFF4046BDE8F08770B504469A
:100B20000569C06A6168884200D80846E16821F416
:100B30002011E160C90312D5A84208D02246411B0A
:100B40002846FFF7C1FF10B14FF0FF3070BD002005
:100B5000E562C4E90150E06820F48030E0600020E4
:100B600070BD10B50446C06820F02000E060A16AA6
:100B7000A06988420DD02046FFF7D0FFE06820F43E
:100B8000405040F01000E060A06AA0612069E0627F
:100B9000606044F24001E0688843E06010BD0000FE
:100BA00010000200002801D000F03CB8704700009F
:100BB00010B5014602A000F07DF8012010BD000034
:100BC00053494752545245443A205265646972650C
:100BD00063743A2063616E2774206F70656E3A20EB
:100BE0000000000010B5431C02E010F8011B71B1B9
:100BF0008107FAD14FF0013202C88C1A8C4314EAF3
:100C0000C211F9D0C01A0A0603D0C01E10BDC01A06
:100C100010BD0A0401D0801E10BD0902FCD0401E88
:100C200010BD000001491820ABBEFEE726000200FF
:100C300000210160C0E90110704710207047034691
:100C400040688C46002818BF88423CBF0346406875
:100C5000F8D318681844884207D00CF1030020F03C
:100C60000700001D411A521A0146081D0A60FFF7CD
:100C700007BC10B50146C268900703D0900607D59F
:100C8000886A0AE000F03EF801210160881E10BD6C
:100C90008B69486818440B69C01A91F848301BB139
:100CA00091F84910401A10BD1103FCD50028FADD57
:100CB000401E10BD70B505460C460A2000E06D1CB4
:100CC00000F018F835B128780028F8D102E0641C4B
:100CD00000F010F814B120780028F8D1BDE8704079
:100CE0000A2000F007B810B500F010F8BDE8104079
:100CF000FFF758BF08B569468DF800000320ABBE6A
:100D000008BD0000004870476402002010B50128AB
:100D100005D0002103A0FFF7CDFF012010BD09A1E0
:100D2000F8E7000053494752544D454D3A204F755E
:100D300074206F662068656170206D656D6F7279D3
:100D4000000000003A2048656170206D656D6F728B
:100D50007920636F727275707465640000BFFEE77E
:100D600070472DE9F04102460025002600200023AF
:100D70000024002791F803C00CF00F0591F803C080
:100D80000CF0100CBCF1000F03D091F802C04CEA3B
:100D9000050591F800C0BCF1000F31D014680020A7
:100DA0002BE04FF0010C0CFA00F3B1F800C00CEA94
:100DB00003069E4220D183004FF00F0C0CFA03F77C
:100DC000BC4305FA03FC4CEA040491F803C0BCF1EF
:100DD000280F06D14FF0010C0CFA00FCC2F814C029
:100DE0000AE091F803C0BCF1480F05D14FF0010CA7
:100DF0000CFA00FCC2F810C0401C0828D1D31460C3
:100E0000B1F800C0BCF1FF0F34DD546800202EE0C3
:100E100000F1080C4FF0010808FA0CF3B1F800C01B
:100E20000CEA03069E4221D183004FF00F0C0CFA0E
:100E300003F7BC4305FA03FC4CEA040491F803C031
:100E4000BCF1280F05D100F1080C08FA0CF8C2F823
:100E5000148091F803C0BCF1480F07D100F1080CD1
:100E60004FF0010808FA0CF8C2F81080401C08285E
:100E7000CED35460BDE8F081F0B50A4600230024CB
:100E80000021002500F00046B6F1004F02D11D4EB2
:100E9000F16901E01B4E7168C0F3034583B200F4B1
:100EA0004016B6F5401F08D121F07061154E7668E6
:100EB00026F07066134F7E6012E000F48016B6F5DF
:100EC000801F06D1032606FA05F4A14341F07061A4
:100ED00006E0460D360103FA06F6B14341F07061B3
:100EE00022B1460D360103FA06F6314300F0004602
:100EF000B6F1004F02D1034EF16101E0014E716085
:100F0000F0BD000000000140416170470161704781
:100F100000BFFEE710B50A48007820B1202109483B
:100F2000FFF7F4FF03E020210648FFF7EDFF044838
:100F3000007808B9012000E000200149087010BDC8
:100F4000280000200018014000BFFEE770470000A5
:100F500070B5002100230F22C47804B3154C246817
:100F600004F4E064C4F5E064210AC1F10403CA405A
:100F7000447804FA03F184781440214309010E4CAB
:100F80000678A155047804F01F050124AC400578CB
:100F90006D11AD0005F1E025C5F8004109E00478C8
:100FA00004F01F050124AC40044D0678761145F885
:100FB000264070BD0CED00E000E400E080E100E0C0
:100FC00002490143024A1160704700000000FA051F
:100FD0000CED00E07047000029B1064AD2690243D7
:100FE000044BDA6104E0034AD2698243014BDA61BF
:100FF000704700000010024029B1064A12690243FE
:10100000044B1A6104E0034A12698243014B1A61DE
:10101000704700000010024029B1064A926902435D
:10102000044B9A6104E0034A92698243014B9A613E
:10103000704700000010024029B1064AD2680243FE
:10104000044BDA6004E0034AD2688243014BDA6061
:10105000704700000010024030B50021002200243B
:1010600000232D4D6D6805F00C0121B1042905D038
:10107000082923D105E0294D056022E0274D0560B0
:101080001FE0254D6D6805F47012234D6D6805F461
:101090008034022505EB92421CB9214D5543056071
:1010A0000BE01D4D6D6805F400351DB11C4D554319
:1010B000056002E0194D5543056002E0174D0560DB
:1010C00000BF00BF144D6D6805F0F0010909154D12
:1010D0006B5C0568DD4045600F4D6D6805F4E061AF
:1010E000090A104D6B5C4568DD4085600A4D6D68EE
:1010F00005F46051C90A0B4D6B5C4568DD40C56065
:10110000054D6D6805F44041890B074D6B5CC56862
:10111000B5FBF3F5056130BD0010024000127A0006
:1011200000093D001400002024000020704710B585
:1011300000F002F810BD00000CB5002001900090F6
:101140003348006840F480303149086000BF3048BF
:10115000006800F4003000900198401C0190009855
:1011600018B90198B0F5A06FF1D12948006800F4D2
:10117000003010B10120009001E0002000900098A4
:10118000012843D12348006840F01000214908603D
:101190000846006820F0030008600846006840F038
:1011A000020008601A4840681949486008464068CB
:1011B00048600846406840F48060486008464068DF
:1011C00020F47C1048600846406840F4E81048600D
:1011D0000846006840F08070086000BF0C48006856
:1011E00000F000700028F9D00948406820F00300A2
:1011F000074948600846406840F00200486000BF68
:101200000348406800F00C000828F9D10CBD00002C
:101210000010024000200240042808D14FF0E021D5
:10122000096941F004014FF0E022116107E04FF03D
:10123000E021096921F004014FF0E02211617047BB
:101240007047000010B51348006840F001001149D4
:10125000086008464068104908400E494860084642
:1012600000680E4908400B4908600846006820F4F1
:10127000802008600846406820F4FE0048604FF473
:101280001F008860FFF753FF4FF0006004490860BB
:1012900010BD0000001002400000FFF8FFFFF6FE46
:1012A00008ED00E021B1028842F00102028004E072
:1012B00002884FF6FE731A400280704770B5002412
:1012C00000220023058C4FF6EF7635400584028C12
:1012D0008388048B48F6FF752C404FF6FF452C4061
:1012E0000D884FF6FF7606EA05252C434FF6DF758D
:1012F0002A400D8906EA05152A434D8806EA051598
:101300002A43154DA84202D0144DA8421DD14FF6D4
:101310007F752A404D894FF6FF7606EA05152A4368
:101320004FF6BF752A408D8806EA05152A434FF609
:10133000FF352B404FF2FF752B408D8906EA85055E
:101340002B43CD8906EA85052B4383800483CD8812
:101350000587028470BD0000002C0140003401406C
:101360000A460021018B4FF2FF7319404FF6FF73BD
:1013700003EA022319430183704700000022028818
:101380001D4B98420ED01D4B98420BD0B0F1804FB0
:1013900008D01B4B984205D01A4B984202D01A4BEA
:1013A000984204D14FF68F731A404B881A43174B5B
:1013B000984207D0164B984204D04FF6FF431A408C
:1013C000CB881A4302808B8883850B8803850A4B60
:1013D00098420BD0094B984208D00E4B984205D04A
:1013E0000D4B984202D00D4B984201D10B7A0386E7
:1013F0000123838270470000002C0140003401402B
:101400000004004000080040000C004000100040B4
:1014100000140040004001400044014000480140E9
:1014200010B540F225511F4800F0A9F810B31D482F
:1014300000F060F9C4B21C48008800F40040C8B94C
:101440001948008800F4804060B10A2C06D1164883
:10145000008840F400401449088021E0002012492F
:1014600008801DE00D2C06D10F48008840F4804014
:101470000D49088014E00C480088C0F30D000B49AA
:101480000C5409480088401C074908800846008819
:10149000B0F5967F04DD0846008840F400500880CF
:1014A00010BD0000003801402E0000203C0000204C
:1014B00021B1828942F40052828104E082894DF692
:1014C000FF731A408281704710B504462048844259
:1014D00009D101218803FFF7AFFD00214FF48040BF
:1014E000FFF7AAFD32E01B48844209D101214804DC
:1014F000FFF782FD00214FF40030FFF77DFD25E06E
:101500001548844209D101218804FFF775FD0021A7
:101510004FF48020FFF770FD18E01048844209D195
:101520000121C804FFF768FD00214FF40020FFF7F8
:1015300063FD0BE00A48844208D101210805FFF74A
:101540005BFD00214FF48010FFF756FD10BD000039
:10155000003801400044004000480040004C00407A
:101560000050004002460020B1F5007F00D100BFCE
:1015700013880B400BB1012000E00020704770B5CC
:101580000246002400230025002040F66A16B142DE
:1015900000D100BFC1F3421501F01F03012606FA76
:1015A00003F3012D02D19689334006E0022D02D1CA
:1015B000168A334001E0968A33400C12012606FA5F
:1015C00004F41688344013B10CB1012000E000206F
:1015D00070BDF0B50346002400260025002040F62B
:1015E0006A17B94200D100BF1846C1F3421401F096
:1015F0001F06012707FA06F5012C01D10C3004E083
:10160000022C01D1103000E014301AB107682F43CA
:10161000076002E00768AF430760F0BD2DE9F047BF
:1016200086B005460E460024A24600BFA14600270C
:10163000B08900B100BF2F462C8A4CF6FF700440E1
:10164000F08804432C82AC894EF6F3100440B08835
:1016500031890843718908430443AC81AC8A4FF651
:10166000FF400440B0890443AC8201A8FFF7F4FCBA
:101670001F48874202D1DDF810A001E0DDF80CA080
:10168000A88900F4004040B10AEBCA0000EB0A1040
:1016900031684900B0FBF1F807E00AEBCA0000EB43
:1016A0000A1031688900B0FBF1F86420B8FBF0F053
:1016B00004012009642101FB1089A88900F400407D
:1016C00040B1322000EBC900B0FBF1F000F00700A0
:1016D000044308E0322000EB09106421B0FBF1F074
:1016E00000F00F0004432C8106B0BDE8F087000035
:1016F0000038014001468888C0F308007047C1F3F4
:1017000008028280704700BFFEE7000008B5012193
:101710000820FFF781FC4FF48070ADF80000102026
:101720008DF8030003208DF8020069460448FFF796
:1017300018FB4FF480710248FFF7E6FB08BD00007C
:10174000000C014010B56FF00400FFF765FD0A487A
:1017500000680A49B0FBF1F00949087008460078B2
:1017600000EB4001C1EBC0104FF6FF7101EAC00071
:101770000449088010BD00000000002000127A001B
:101780002A0000202C0000200146114A12884A43FA
:101790004FF0E0235A6100229A611A46126942F022
:1017A00001021A6100BF4FF0E022106900F001024F
:1017B0001AB100F48032002AF5D04FF0E02212690D
:1017C00022F001024FF0E0231A6100229A61704773
:1017D0002C0000208A68002A01DCFEF78CBE521E15
:1017E0008A604A68C0B2531C4B601070704700009A
:1017F00008B501214420FFF70FFC1C20ADF80000C4
:1018000048208DF8030069460648FFF7AAFA012030
:10181000ADF8000028208DF8030069460248FFF764
:10182000A0FA08BD001801400008014000B589B0C9
:1018300001210220FFF7D0FB01214920FFF7ECFB3B
:101840002020ADF8200010208DF8230003208DF813
:10185000220008A91E48FFF784FA20211C48FFF740
:1018600055FB01211B48FFF707FB2020ADF82000A6
:1018700018208DF8230003208DF8220008A91648AF
:10188000FFF76FFA6320ADF818000420ADF81400DC
:101890000020ADF81A00ADF8160005A90F48FFF7B3
:1018A0006DFD7020ADF804000120ADF806000020A9
:1018B000ADF80C0001A90948FFF700FD0821074811
:1018C000FFF74EFD01210548FFF7ECFC09B000BD14
:1018D0000018014000081A00000C014000040040FC
:1018E000FFF730FFFFF7A2FFFFF782FFFFF70EFFC2
:1018F0004FF4A060FFF764FB4FF4E13000F0A4F870
:1019000054E02B48008800F4004000282BD02848E1
:10191000008800F4005020B126A1344800F0F7F808
:101920001DE023480088C0F30D0631A12F4800F0C8
:10193000EEF800250DE03448415D2C48FFF7DFFE4E
:1019400000BF40212948FFF70DFE0128F9D1681C8E
:1019500085B2B542EFDB2DA1244800F0D8F8002075
:101960001349088022E0601C84B241F2883094FB65
:10197000F0F100FB114028B926A0FEF74FFC28A08B
:10198000FEF74CFCC82094FBF0F100FB114010B9AD
:1019900026A0FEF743FC1E2094FBF0F100FB114053
:1019A00008B9FFF7B7FA0A20FFF7EEFEA9E7000033
:1019B0002E0000200D0A0D0ACAE4C8EBD7D6B7FBEB
:1019C000B8F6CAFDB3ACCFDEA3ACD2D1C7E5B3FD48
:1019D000CAE4C8EBC0FACAB7A3ACC7EBD6D8D0C22A
:1019E000CAE4C8EBA3A10D0A0D0A000000380140AB
:1019F0000D0AC4FAB7A2CBCDB5C4D0C5CFA2CEAA2A
:101A0000A3BA0D0A0D0A00003C0000200D0A0D0AC1
:101A1000000000000D0AB1EAD6BE310D0A00000038
:101A2000B1EAD6BE320D0A0D0A000000C7EBCAE4C7
:101A3000C8EBCAFDBEDDA3ACD2D4BBD8B3B5BCFCE9
:101A4000BDE1CAF80D0A000010B586B004460121B8
:101A500044F20400FFF7E0FA2348FFF735FD4FF4A6
:101A60000070ADF8140018208DF8170003208DF8D1
:101A7000160005A91D48FFF774F94FF48060ADF812
:101A8000140004208DF8170005A91848FFF769F91C
:101A900001940020ADF80800ADF80A00ADF80C0084
:101AA000ADF810000C20ADF80E0001A90E48FFF7AC
:101AB000B5FD25208DF8000003208DF801008DF87C
:101AC000020001208DF803006846FFF741FA012269
:101AD00040F225510448FFF77CFD01210248FFF741
:101AE000E7FC06B010BD00000038014000080140CE
:101AF00070B504460D4629462046FFF700FE00BF9C
:101B000040212046FFF72EFD0028F9D070BD70B5AA
:101B100005460C4604E021782846FFF7E9FF641CDF
:101B200020780028F7D170BD3A7474003A747400BC
:101B30003A747400541B0008000000203C000000B0
:101B40006C010008901B00083C0000208C0800007D
:101B50008801000800A24A04000000000000000004
:101B60000102030406070809000000000102030443
:101B70000102030406070809020406080000000029
:101B80000000000000000000000000000000000055
:0400000508000131BD
:00000001FF
