:020000040800F2
:1000000078060020CD0100084104000839040008EA
:100010003D040008870200087D070008000000007A
:10002000000000000000000000000000850400083F
:100030008B02000800000000430400089905000836
:10004000E7010008E7010008E7010008E7010008F0
:10005000E7010008E7010008E7010008E7010008E0
:10006000E7010008E7010008E7010008E7010008D0
:10007000E7010008E7010008E7010008E7010008C0
:10008000E7010008E7010008E7010008E7010008B0
:10009000E7010008E7010008E7010008E7010008A0
:1000A000E7010008E7010008E7010008E701000890
:1000B000E7010008E7010008E7010008E701000880
:1000C000E7010008E7010008E7010008E701000870
:1000D000E7010008E7010008E7010008E701000860
:1000E000E7010008E7010008E7010008E701000850
:1000F000E7010008E7010008E7010008E701000840
:10010000E7010008E7010008E7010008E70100082F
:10011000E7010008E7010008E7010008E70100081F
:10012000E7010008E7010008E7010008E70100080F
:1001300000F002F800F03AF80AA090E8000C8244BF
:100140008344AAF10107DA4501D100F02FF8AFF29C
:10015000090EBAE80F0013F0010F18BFFB1A43F0A5
:1001600001031847A8070000C8070000103A24BF81
:1001700078C878C1FAD8520724BF30C830C144BF0C
:1001800004680C607047000000230024002500264E
:10019000103A28BF78C1FBD8520728BF30C148BFEA
:1001A0000B6070471FB51FBD10B510BD00F031F8D2
:1001B0001146FFF7F7FF00F085FB00F04FF803B49E
:1001C000FFF7F2FF03BC00F057F800000948804732
:1001D00009480047FEE7FEE7FEE7FEE7FEE7FEE729
:1001E000FEE7FEE7FEE7FEE704480549054A064B41
:1001F000704700009D0500083101000878000020CC
:1002000078060020780200207802002070477047AE
:100210007047754600F02CF8AE4605006946534617
:1002200020F00700854618B020B5FFF7DDFFBDE8D8
:1002300020404FF000064FF000074FF000084FF04D
:10024000000B21F00701AC46ACE8C009ACE8C009DE
:10025000ACE8C009ACE8C0098D46704710B504464B
:10026000AFF300802046BDE81040FFF7A8BF0000B4
:10027000004870471800002001491820ABBEFEE777
:1002800026000200704700BFFEE770472DE9F041ED
:10029000024600250026002000230024002791F8B4
:1002A00003C00CF00F0591F803C00CF0100CBCF16A
:1002B000000F03D091F802C04CEA050591F800C088
:1002C000BCF1000F31D0146800202BE04FF0010C7E
:1002D0000CFA00F3B1F800C00CEA03069E4220D1EC
:1002E00083004FF00F0C0CFA03F7BC4305FA03FC34
:1002F0004CEA040491F803C0BCF1280F06D14FF07A
:10030000010C0CFA00FCC2F814C00AE091F803C01A
:10031000BCF1480F05D14FF0010C0CFA00FCC2F8FB
:1003200010C0401C0828D1D31460B1F800C0BCF143
:10033000FF0F34DD546800202EE000F1080C4FF070
:10034000010808FA0CF3B1F800C00CEA03069E425B
:1003500021D183004FF00F0C0CFA03F7BC4305FAD0
:1003600003FC4CEA040491F803C0BCF1280F05D14A
:1003700000F1080C08FA0CF8C2F8148091F803C0D8
:10038000BCF1480F07D100F1080C4FF0010808FA42
:100390000CF8C2F81080401C0828CED35460BDE889
:1003A000F0810000F0B50A4600230024002100255A
:1003B00000F00046B6F1004F02D11D4EF16901E098
:1003C0001B4E7168C0F3034583B200F44016B6F5C6
:1003D000401F08D121F07061154E766826F07066D6
:1003E000134F7E6012E000F48016B6F5801F06D130
:1003F000032606FA05F4A14341F0706106E0460DBC
:10040000360103FA06F6B14341F0706122B1460DA0
:10041000360103FA06F6314300F00046B6F1004F0C
:1004200002D1034EF16101E0014E7160F0BD0000A8
:10043000000001400161704700BFFEE700BFFEE71A
:100440007047704729B1064AD2690243044BDA610A
:1004500004E0034AD2698243014BDA61704700002D
:100460000010024029B1064A92690243044B9A6186
:1004700004E0034A92698243014B9A61704700008D
:1004800000100240704710B500F002F810BD0000E7
:100490000CB50020019000903348006840F4803093
:1004A0003149086000BF3048006800F40030009017
:1004B0000198401C0190009818B90198B0F5A06F00
:1004C000F1D12948006800F4003010B101200090FB
:1004D00001E0002000900098012843D123480068E3
:1004E00040F01000214908600846006820F0030031
:1004F00008600846006840F0020008601A4840683A
:10050000194948600846406848600846406840F419
:10051000806048600846406820F47C1048600846C7
:10052000406840F4E81048600846006840F0807079
:10053000086000BF0C48006800F000700028F9D087
:100540000948406820F003000749486008464068B1
:1005500040F00200486000BF0348406800F00C0013
:100560000828F9D10CBD0000001002400020024014
:10057000042808D14FF0E021096941F004014FF04F
:10058000E022116107E04FF0E021096921F0040148
:100590004FF0E022116170477047000010B513481A
:1005A000006840F0010011490860084640681049A1
:1005B00008400E494860084600680E4908400B494B
:1005C00008600846006820F48020086008464068FB
:1005D00020F4FE0048604FF41F008860FFF753FFCF
:1005E0004FF000600449086010BD00000010024098
:1005F0000000FFF8FFFFF6FE08ED00E021B10288E1
:1006000042F00102028004E002884FF6FE731A40B5
:100610000280704770B5002400220023058C4FF63D
:10062000EF7635400584028C8388048B48F6FF758D
:100630002C404FF6FF452C400D884FF6FF7606EA1A
:1006400005252C434FF6DF752A400D8906EA05156E
:100650002A434D8806EA05152A43154DA84202D0C3
:10066000144DA8421DD14FF67F752A404D894FF693
:10067000FF7606EA05152A434FF6BF752A408D8896
:1006800006EA05152A434FF6FF352B404FF2FF755A
:100690002B408D8906EA85052B43CD8906EA850521
:1006A0002B4383800483CD880587028470BD0000BE
:1006B000002C0140003401400A460021018B4FF21A
:1006C000FF7319404FF6FF7303EA022319430183B6
:1006D0007047018770470000002202881D4B984236
:1006E0000ED01D4B98420BD0B0F1804F08D01B4B61
:1006F000984205D01A4B984202D01A4B984204D126
:100700004FF68F731A404B881A43174B984207D005
:10071000164B984204D04FF6FF431A40CB881A4339
:1007200002808B8883850B8803850A4B98420BD007
:10073000094B984208D00E4B984205D00D4B984279
:1007400002D00D4B984201D10B7A0386012383829C
:1007500070470000002C01400034014000040040BC
:1007600000080040000C0040001000400014004051
:1007700000400140004401400048014000BFFEE746
:1007800010B56FF00400FFF7F3FE0A4800680A494D
:10079000B0FBF1F0094908700846007800EB400111
:1007A000C1EBC0104FF6FF7101EAC0000449088098
:1007B00010BD00000000002000127A00140000208C
:1007C000160000200146114A12884A434FF0E023E8
:1007D0005A6100229A611A46126942F001021A61B6
:1007E00000BF4FF0E022106900F001021AB100F4DE
:1007F0008032002AF5D04FF0E022126922F0010287
:100800004FF0E0231A6100229A6170471600002021
:1008100000B589B001210220FFF714FE0121492013
:10082000FFF720FE2020ADF8200010208DF82300D7
:1008300003208DF8220008A91E48FFF727FD20217C
:100840001C48FFF7F7FD01211B48FFF7ABFD2020F7
:10085000ADF8200018208DF8230003208DF8220029
:1008600008A91648FFF712FD6320ADF81800042010
:10087000ADF814000020ADF81A00ADF8160005A977
:100880000F48FFF729FF7020ADF804000120ADF8F4
:1008900006000020ADF80C0001A90948FFF7BAFED8
:1008A00008210748FFF708FF01210548FFF7A6FECA
:1008B00009B000BD0018014000081A00000C0140FA
:1008C0000004004000240125FFF75AFFFFF7A0FFB6
:1008D00010E00A20FFF776FF15B1601C84B201E03A
:1008E000601E84B2632C00DD002504B9012520467A
:1008F00000F002F8EDE7000010B50446214602487A
:10090000FFF7E7FE10BD0000000400402C090008BE
:1009100000000020180000006C01000844090008D5
:1009200018000020600600008801000800A24A04A8
:10093000000000000000000001020304060708098F
:0409400000000000B3
:0400000508000131BD
:00000001FF
